:10000000F2C0000010C100000EC100000CC10000D1
:100010000AC1000008C1000006C1000004C10000C0
:1000200002C1000000C10000FEC00000FCC00000D2
:10003000FAC00000F8C00000F6C00000F4C00000E4
:10004000F2C00000F0C00000EEC00000ECC00000F4
:10005000EAC00000E8C00000E6C00000E4C0000004
:10006000E2C000000C94A6090C94E709DCC0000073
:10007000DAC00000D8C00000D6C00000D4C0000024
:10008000D2C00000D0C00000CEC00000CCC0000034
:100090000C94320A0C94730AC6C00000C4C000005D
:1000A000C2C00000C0C00000BEC00000BCC0000054
:1000B000BAC00000B8C00000B6C00000B4C0000064
:1000C000B2C00000B0C00000AEC000000C94BE0A78
:1000D0000C94FF0AA8C000000C944A0B0C948B0BE4
:1000E000A2C000006E616E00696E660000407A106A
:1000F000F35A00A0724E18090010A5D4E80000E8D9
:100100007648170000E40B54020000CA9A3B000036
:1001100000E1F505000080969800000040420F00C5
:100120000000A08601000000102700000000E80386
:10013000000000006400000000000A000000000051
:100140000100000000002C76D888DC674F0823DF10
:10015000C1DFAE59E1B1B796E5E3E453C63AE651E3
:10016000997696E8E6C28426EB898C9B62ED407C0A
:100170006FFCEFBC9C9F40F2BAA56FA5F490055AA6
:100180002AF75C936B6CF9676DC11BFCE0E40D47CB
:10019000FEF520E6B500D0ED902E030094357705EE
:1001A0000080841E080000204E0A000000C80C33A6
:1001B0003333330F986E12831141EF8D2114893B35
:1001C000E65516CFFEE6DB18D1844B381BF77C1DB5
:1001D000901DA4BBE424203284725E228100C9F108
:1001E00024ECA1E53D2711241FBECFEFD1E2DEBFF5
:1001F000CDBF00E00CBF12E0A0E0B2E0EEE6FDE112
:1002000000E00BBF02C007900D92A233B107D9F7EF
:1002100023E0A2E3B2E001C01D92AC34B207E1F7E3
:100220004BD00C94B50EECCE00E800937C0006E8B1
:1002300000937A000FEF04B905B900E001B9089501
:100240000F931F9301E0803019F08A95000FFBCFC8
:1002500015B1603021F01095102B109501C0102BB6
:1002600015B91F910F9108950F931F9301E08030EE
:1002700019F08A95000FFBCF10B110951023992724
:10028000812F1F910F9108950F931F93002711271E
:1002900000E410917A00102B10937A0010917A00EC
:1002A00000E40123003009F4F9CF809178009091A7
:1002B00079001F910F910895CF93DF93CDB7DEB7EB
:1002C00068970FB6F894DEBF0FBECDBF40E856E981
:1002D00068E970E080E001D7A7DF7894D5DF9A83E2
:1002E000898389819A81CC01A0E0B0E0BC01CD0175
:1002F00035D2DC01CB012DEC3CEC4CE85FE3BC01DA
:10030000CD01E2D2DC01CB0120E030E040E854E452
:10031000BC01CD018AD1DC01CB0120E030E04AE70D
:1003200054E4BC01CD01D0D2DC01CB018B839C8392
:10033000AD83BE8320E030E040EA51E46B817C81F4
:100340008D819E8172D1DC01CB018F839887A98733
:10035000BA878F819885A985BA85BC01CD01A5D0C2
:1003600086D0892BB9F08A858F9389858F9388856C
:100370008F938F818F938EE192E0892F8F938EE1FF
:1003800092E08F930E94430E0F900F900F900F906A
:100390000F900F9080E090E0A8E4B3E48B879C87F7
:1003A000AD87BE8720E030E44CE155E46B857C8569
:1003B0008D859E8589D2DC01CB018F87988BA98B97
:1003C000BA8B20E030E040E85FE36F857889898967
:1003D0009A8927D188232CF481E090E09C8B8B8B29
:1003E0003BC020E03FEF4FE757E46F85788989896C
:1003F0009A8966D218163CF520E030E040E251E4DC
:100400006B857C858D859E855FD2DC01CB01BC012F
:10041000CD0178D1DC01CB019C8B8B8B0FC08AEF97
:1004200090E09E8B8D8B8D899E890197F1F79E8B35
:100430008D8B8B899C8901979C8B8B8B8B899C895D
:10044000892B69F713C06F85788989899A895AD170
:10045000DC01CB019C8B8B8B8B899C89988F8F8B3C
:100460008F89988D0197F1F7988F8F8B37CFCF9326
:10047000DF93CDB7DEB780E0F7DE882339F081E087
:1004800090E0909307028093060208C081E0ECDEC2
:10049000882321F010920702109206028091060232
:1004A00090910702DF91CF910895CF93DF93CDB75D
:1004B000DEB72A970FB6F894DEBF0FBECDBF6F83AD
:1004C000788789879A8720E030E040EA51E46F819D
:1004D000788589859A8540D0DC01CB0120E030E029
:1004E00040E250E4BC01CD01A0D0DC01CB01BC0155
:1004F000CD0103D1DC01CB019E838D831A82198249
:1005000008C0898161E09CDE89819A8101969A8385
:10051000898329813A818D819E81821793078CF787
:100520008D819E8101969C838B8308C08B8160E0C6
:1005300087DE8B819C8101969C838B838B819C8140
:100540000897A4F300002A960FB6F894DEBF0FBEFA
:10055000CDBFDF91CF9108955058BB27AA270ED069
:1005600075C166D130F06BD120F031F49F3F11F4AA
:100570001EF45BC10EF4E095E7FB51C1E92F77D182
:1005800080F3BA17620773078407950718F071F4B0
:100590009EF58FC10EF4E0950B2EBA2FA02D0B0106
:1005A000B90190010C01CA01A0011124FF27591BB8
:1005B00099F0593F50F4503E68F11A16F040A22FBE
:1005C000232F342F4427585FF3CF4695379527952F
:1005D000A795F0405395C9F77EF41F16BA0B620B2E
:1005E000730B840BBAF09150A1F0FF0FBB1F661F75
:1005F000771F881FC2F70EC0BA0F621F731F841FB8
:1006000048F4879577956795B795F7959E3F08F0DD
:10061000B3CF9395880F08F09927EE0F979587959C
:100620000895D9D008F481E008950CD00FC107D106
:1006300040F0FED030F021F45F3F19F0F0C05111CE
:1006400039C1F3C014D198F39923C9F35523B1F3F9
:10065000951B550BBB27AA2762177307840738F031
:100660009F5F5F4F220F331F441FAA1FA9F333D090
:100670000E2E3AF0E0E830D091505040E695001C44
:10068000CAF729D0FE2F27D0660F771F881FBB1F00
:10069000261737074807AB07B0E809F0BB0B802DDA
:1006A000BF01FF2793585F4F2AF09E3F510568F026
:1006B000B6C000C15F3FECF3983EDCF386957795BA
:1006C0006795B795F7959F5FC9F7880F911D969528
:1006D000879597F90895E1E0660F771F881FBB1F84
:1006E000621773078407BA0720F0621B730B840B31
:1006F000BA0BEE1F88F7E095089504D06894B11105
:10070000D9C00895BCD088F09F5790F0B92F992791
:10071000B751A0F0D1F0660F771F881F991F1AF00C
:10072000BA95C9F712C0B13081F0C3D0B1E00895D5
:10073000C0C0672F782F8827B85F39F0B93FCCF356
:10074000869577956795B395D9F73EF49095809502
:10075000709561957F4F8F4F9F4F0895E89409C022
:1007600097FB3EF490958095709561957F4F8F4FE4
:100770009F4F9923A9F0F92F96E9BB279395F695FA
:10078000879577956795B795F111F8CFFAF4BB0F78
:1007900011F460FF1BC06F5F7F4F8F4F9F4F16C0DC
:1007A000882311F096E911C0772321F09EE8872F66
:1007B000762F05C0662371F096E8862F70E060E022
:1007C0002AF09A95660F771F881FDAF7880F96959B
:1007D000879597F90895990F0008550FAA0BE0E83F
:1007E000FEEF16161706E807F907C0F012161306F3
:1007F000E407F50798F0621B730B840B950B39F433
:100800000A2661F0232B242B252B21F408950A2698
:1008100009F4A140A6958FEF811D811D089597F9D8
:100820009F6780E870E060E008959FEF80EC089596
:1008300000240A94161617061806090608950024BF
:100840000A9412161306140605060895092E039439
:10085000000C11F4882352F0BB0F40F4BF2B11F4AD
:1008600060FF04C06F5F7F4F8F4F9F4F089557FD0C
:100870009058440F551F59F05F3F71F04795880F0E
:1008800097FB991F61F09F3F79F0879508951216A5
:1008900013061406551FF2CF4695F1DF08C0161651
:1008A00017061806991FF1CF869571056105089402
:1008B0000895E894BB2766277727CB0197F9089519
:1008C0008ADF08F48FEF08950BD0C0CFB1DF28F096
:1008D000B6DF18F0952309F0A2CFA7CF1124EACFF5
:1008E000C6DFA0F3959FD1F3950F50E0551F629F8F
:1008F000F001729FBB27F00DB11D639FAA27F00D79
:10090000B11DAA1F649F6627B00DA11D661F829F9F
:100910002227B00DA11D621F739FB00DA11D621F84
:10092000839FA00D611D221F749F3327A00D611DA1
:10093000231F849F600D211D822F762F6A2F112483
:100940009F5750408AF0E1F088234AF0EE0FFF1FD6
:10095000BB1F661F771F881F91505040A9F79E3F0D
:10096000510570F05CCFA6CF5F3FECF3983EDCF30F
:10097000869577956795B795F795E7959F5FC1F74A
:10098000FE2B880F911D9695879597F908952F92C4
:100990003F924F925F926F927F928F929F92AF920F
:1009A000BF92CF92DF92EF92FF920F931F93CF935C
:1009B000DF93CDB7DEB760970FB6F894DEBF0FBEFA
:1009C000CDBF7C011B016A01FC0117821682838165
:1009D00081FF2BC39E012F5F3F4F3901F7019381A8
:1009E000F10193FD859193FF81911F01882309F403
:1009F00018C3853239F493FD859193FF81911F01CE
:100A0000853239F4B70190E00E94070E5601650166
:100A1000E5CF10E0512C912CFFE1F915D8F08B3285
:100A200079F038F4803279F08332A1F4F92DF06155
:100A30002EC08D3261F0803369F4292D21602DC0E4
:100A4000392D3260932E892D8460982E2AC0E92D8D
:100A5000E86015C097FC2DC020ED280F2A3088F4DF
:100A600096FE06C03AE0139F200D1124122F19C0E4
:100A70008AE0589E200D1124522EE92DE0629E2E10
:100A800010C08E3231F496FCCCC2F92DF0649F2E4A
:100A900008C08C3621F4292D2068922E02C0883699
:100AA00041F4F10193FD859193FF81911F01811123
:100AB000B3CF9BEB980F933020F4992D9061805E1B
:100AC00007C09BE9980F933008F059C1992D9F7E7C
:100AD00096FF16E09F73992E853619F49064992E2F
:100AE00008C0863621F4392F3068932E02C01111C8
:100AF000115097FE07C01C3350F444244394410E18
:100B000027E00BC0183038F027E017E005C027E0D9
:100B10009CE3492E02C0212F412C560184E0A80EEF
:100B2000B11CF6016081718182819381042DA30142
:100B300080D76C01F981FC87F0FF02C0F3FF06C08B
:100B400091FC06C092FE06C000E205C00DE203C0A3
:100B50000BE201C000E08C858C7019F0011143C2DA
:100B600080C297FE10C04C0CFC85F4FF04C08A8143
:100B7000813309F44A94141474F528E0241578F5A7
:100B800088E0482E2CC096FC2AC0812F90E08C155E
:100B90009D059CF03CEFC3163FEFD30674F0892D02
:100BA0008068982E0AC0E2E0F0E0EC0FFD1FE10F34
:100BB000F11D8081803319F411501111F4CF97FE8B
:100BC0000EC044244394410E812F90E0C816D906EC
:100BD0002CF41C1904C04424439401C010E097FE77
:100BE00006C01C141D0434F4C601019605C085E03E
:100BF00090E002C081E090E001110196112331F0F4
:100C0000212F30E02F5F3F4F820F931F252D30E0C3
:100C10008217930714F4581A01C0512C892D89703A
:100C200041F4552031F0B70180E290E0F0D75A94BA
:100C3000F8CF002321F0B701802F90E0E8D793FC94
:100C400008C0552031F0B70180E390E0E0D75A9416
:100C5000F8CF97FE4AC04601D7FE02C0812C912CE6
:100C6000C60188199909F301E80FF91FFE87ED877E
:100C7000960124193109388B2F87012F10E0119527
:100C8000019511093FEF8316930621F4B7018EE217
:100C900090E0BDD7C814D9044CF08F859889881589
:100CA000990524F4ED85FE85818101C080E3F1E0A2
:100CB0008F1A91082D853E852F5F3F4F3E872D87E8
:100CC0008016910624F0B70190E0A1D7DBCFC814BD
:100CD000D90441F49A81963320F4953319F43C8574
:100CE00034FF81E3B70190E048C08A81813319F075
:100CF0009C859F7E9C87B70190E089D7111105C024
:100D000094FC16C085E690E015C0B7018EE290E035
:100D10007ED71E5F82E001E0080FF301E80FF11DAE
:100D20008081B70190E073D7802F0113F4CFE8CF13
:100D300085E490E0B7016BD7D7FC06C0C114D1049D
:100D400041F4EC85E4FF05C0D194C194D1088DE253
:100D500001C08BE2B70190E05AD780E32AE0C216C7
:100D6000D1042CF08F5FFAE0CF1AD108F7CFB7018A
:100D700090E04DD7B701C601C09649D749C1833627
:100D800031F0833779F0833509F052C01FC0560126
:100D900032E0A30EB11CF6018081898301E010E0EE
:100DA000630111C05601F2E0AF0EB11CF601C08024
:100DB000D18096FE03C0612F70E002C06FEF7FEF1D
:100DC000C6011AD78C01F92DFF7713C0560122E016
:100DD000A20EB11CF601C080D18096FE03C0612F27
:100DE00070E002C06FEF7FEFC601FBD68C01F92DDA
:100DF000F0689F2EF3FD18C0852D90E008171907A5
:100E000098F4B70180E290E002D75A94F5CFF6014A
:100E100097FC859197FE81916F01B70190E0F7D61D
:100E200051105A94015011090115110581F7F0C0B4
:100E3000843611F0893659F5560197FE09C024E031
:100E4000A20EB11CF60160817181828193810AC07A
:100E5000F2E0AF0EB11CF60160817181072E000C2B
:100E6000880B990BF92DFF769F2E97FF09C090955F
:100E70008095709561957F4F8F4F9F4FF0689F2EA3
:100E80002AE030E0A30113D7C82EC6183EC0092DB2
:100E9000853721F40F7E2AE030E01DC0097F8F36B0
:100EA00091F018F4883559F0BCC0803719F08837B4
:100EB00011F0B7C0006104FF09C0046007C094FED0
:100EC00008C0066006C028E030E005C020E130E040
:100ED00002C020E132E0560107FF09C084E0A80EFD
:100EE000B11CF601608171818281938108C0F2E0BA
:100EF000AF0EB11CF6016081718180E090E0A3012A
:100F0000D6D6C82EC6180F77902E96FE0BC0092D88
:100F10000E7FC11650F494FE0AC092FC08C0092D41
:100F20000E7E05C0DC2C092D03C0DC2C01C0D12EA7
:100F300004FF0DC0FE01EC0DF11D8081803311F422
:100F4000097E09C002FF06C0D394D39404C0802F49
:100F5000867809F0D39403FD10C000FF06C01C2D55
:100F6000D51478F4150D1D190CC0D51450F4B70123
:100F700080E290E04CD6D394F8CFD51410F45D18ED
:100F800001C0512C04FF0FC0B70180E390E03FD6B1
:100F900002FF16C001FD03C088E790E002C088E5AB
:100FA00090E0B7010CC0802F867851F001FF02C09D
:100FB0008BE201C080E207FD8DE2B70190E027D609
:100FC000C11630F4B70180E390E021D61150F8CF7C
:100FD000CA94F301EC0DF11D8081B70190E017D6A2
:100FE000C110F6CF15C0F4E0F51550F584E0581A9D
:100FF00093FE1EC0011125C02C8523FF27C004EEDF
:1010000010E0392D3071932EF8018491811121C0A7
:10101000552009F4FCCCB70180E290E0F8D55A9451
:10102000F7CFF7018681978123C08FEF9FEF20C014
:10103000B70180E290E0EBD55A945110F9CFDACFA6
:10104000512CB701802F90E0E2D5D6CF08EE10E00A
:10105000D8CF91108052B70190E0D9D50F5F1F4FC4
:10106000D3CF23E0251510F483E0C1CF512CC4CF9A
:1010700060960FB6F894DEBF0FBECDBFDF91CF9163
:101080001F910F91FF90EF90DF90CF90BF90AF90A6
:101090009F908F907F906F905F904F903F902F9098
:1010A0000895CF93DF931F92CDB7DEB7BE016F5F78
:1010B0007F4F85EB92E066D08111F8CF898190E077
:1010C0000F90DF91CF910895682F80913803909110
:1010D000390324D180E090E008954F925F926F929F
:1010E0007F928F929F92AF92CF92EF920F931F9326
:1010F000CF93C82F2A013B0185EB92E03AD082E3DF
:1011000092E037D01F921F9282E392E09F938F93D9
:101110000F2EF5EB8F2EF2E09F2EF02DA12CC12C7F
:101120000F2EF3E0EF2EF02D00E011EE20E030E086
:10113000B301A2018C2F70D09093390380933803B0
:10114000E6E4F3E088E092E09183808393838283F6
:101150000F900F900F900F90CF911F910F91EF90E4
:10116000CF90AF909F908F907F906F905F904F90B7
:101170000895FC01E058FF4F10823196108231969D
:1011800010820895FC01EE57FF4F20812223F9F0D1
:1011900031972081DC01A20FB11D2C91DB012C9332
:1011A000208130E02F5F3F4F2F773078332334F4A6
:1011B0002150310920683F6F2F5F3F4F2083FC0192
:1011C000EE57FF4F80818150808380E0089581E059
:1011D0000895FC01EE57FF4F40814423DCF0329725
:1011E000208130E0DC01A20FB31F6C932F5F3F4FD3
:1011F0002F773078332334F42150310920683F6F42
:101200002F5F3F4F2083FC01EE57FF4F4F5F40831E
:1012100080E0089582E008954F925F926F927F92EE
:101220008F929F92DF92EF92FF920F931F93CF9333
:10123000DF9300D01F92CDB7DEB7D82E49835A83F3
:101240006B837C832801390188E090E0D1D27C0156
:101250008D2D90E0880F991FFC01E65CFC4FF18218
:10126000E082FC01EA5EFD4F80819181D7011196F9
:101270009C938E938D899E8913969C938E9312973F
:1012800015969C928E9214978F89988D17969C93A1
:101290008E931697DFB6F894ED91FC9111973697DF
:1012A0008081826080838D909C90D301C201880FE1
:1012B000991FAA1FBB1F880F991FAA1FBB1F9C0144
:1012C000AD01220F331F441F551F69817A818B8125
:1012D0009C816CD22150F40132972083D701ED918B
:1012E000FC911197359788E98083ED91FC913497B3
:1012F00086E08083DFBEC7010F900F900F900F90A4
:10130000DF91CF911F910F91FF90EF90DF909F9011
:101310008F907F906F905F904F900895CF93DF9361
:10132000FC0182819381009759F0EF0152DF811116
:1013300009C0E881F981359790819062908303C05C
:1013400082E001C082E0DF91CF9108951F920F9259
:101350000FB60F9211240BB60F922F933F934F931A
:101360005F936F937F938F939F93AF93BF93CF932D
:10137000EF93FF93E0913A03F0913B03309799F09C
:10138000C091C6006C2F8481958123DF80913A0340
:1013900090913B03DC011696ED91FC9117973097E5
:1013A00011F06C2F1995FF91EF91CF91BF91AF91F3
:1013B0009F918F917F916F915F914F913F912F916D
:1013C0000F900BBE0F900FBE0F901F9018951F929D
:1013D0000F920FB60F9211240BB60F922F933F93DB
:1013E0004F935F936F937F938F939F93AF93BF932D
:1013F000EF93FF93CF93DF931F92CDB7DEB7E091CA
:101400003A03F0913B03309791F0BE016F5F7F4F3D
:1014100082819381B7DE811104C089818093C600E7
:101420000BC0E1ECF0E080818F7D808305C0E1ECB2
:10143000F0E080818F7D80830F90DF91CF91FF91CD
:10144000EF91BF91AF919F918F917F916F915F913C
:101450004F913F912F910F900BBE0F900FBE0F90A9
:101460001F9018951F920F920FB60F9211240BB672
:101470000F922F933F934F935F936F937F938F932D
:101480009F93AF93BF93CF93EF93FF93E0913C0370
:10149000F0913D03309799F0C091CE006C2F84817C
:1014A000958197DE80913C0390913D03DC01169677
:1014B000ED91FC911797309711F06C2F1995FF91D2
:1014C000EF91CF91BF91AF919F918F917F916F914C
:1014D0005F914F913F912F910F900BBE0F900FBED8
:1014E0000F901F9018951F920F920FB60F92112414
:1014F0000BB60F922F933F934F935F936F937F930E
:101500008F939F93AF93BF93EF93FF93CF93DF930B
:101510001F92CDB7DEB7E0913C03F0913D033097C9
:1015200091F0BE016F5F7F4F828193812BDE81112D
:1015300004C089818093CE000BC0E9ECF0E080818B
:101540008F7D808305C0E9ECF0E080818F7D808312
:101550000F90DF91CF91FF91EF91BF91AF919F914C
:101560008F917F916F915F914F913F912F910F904C
:101570000BBE0F900FBE0F901F9018951F920F92E9
:101580000FB60F9211240BB60F922F933F934F93E8
:101590005F936F937F938F939F93AF93BF93CF93FB
:1015A000EF93FF93E0913E03F0913F03309799F062
:1015B000C091D6006C2F848195810BDE80913E0313
:1015C00090913F03DC011696ED91FC9117973097AF
:1015D00011F06C2F1995FF91EF91CF91BF91AF91C1
:1015E0009F918F917F916F915F914F913F912F913B
:1015F0000F900BBE0F900FBE0F901F9018951F926B
:101600000F920FB60F9211240BB60F922F933F93A8
:101610004F935F936F937F938F939F93AF93BF93FA
:10162000EF93FF93CF93DF931F92CDB7DEB7E09197
:101630003E03F0913F03309791F0BE016F5F7F4F03
:10164000828193819FDD811104C089818093D600BE
:101650000BC0E1EDF0E080818F7D808305C0E1ED7E
:10166000F0E080818F7D80830F90DF91CF91FF919B
:10167000EF91BF91AF919F918F917F916F915F910A
:101680004F913F912F910F900BBE0F900FBE0F9077
:101690001F9018951F920F920FB60F9211240BB640
:1016A0000F922F933F934F935F936F937F938F93FB
:1016B0009F93AF93BF93CF93EF93FF93E09140033A
:1016C000F0914103309799F0C09136016C2F8481DD
:1016D00095817FDD8091400390914103DC01169656
:1016E000ED91FC911797309711F06C2F1995FF91A0
:1016F000EF91CF91BF91AF919F918F917F916F911A
:101700005F914F913F912F910F900BBE0F900FBEA5
:101710000F901F9018951F920F920FB60F921124E1
:101720000BB60F922F933F934F935F936F937F93DB
:101730008F939F93AF93BF93EF93FF93CF93DF93D9
:101740001F92CDB7DEB7E0914003F091410330978F
:1017500091F0BE016F5F7F4F8281938113DD811114
:1017600004C08981809336010BC0E1E3F1E0808100
:101770008F7D808305C0E1E3F1E080818F7D8083F0
:101780000F90DF91CF91FF91EF91BF91AF919F911A
:101790008F917F916F915F914F913F912F910F901A
:1017A0000BBE0F900FBE0F901F901895A1E21A2E3E
:1017B000AA1BBB1BFD010DC0AA1FBB1FEE1FFF1FF5
:1017C000A217B307E407F50720F0A21BB30BE40B45
:1017D000F50B661F771F881F991F1A9469F760958C
:1017E0007095809590959B01AC01BD01CF01089546
:1017F0000F931F93CF93DF938230910510F482E013
:1018000090E0E0914403F091450320E030E0A0E057
:10181000B0E0309719F1408151810281138148175E
:101820005907C8F08417950769F4109731F012969C
:101830000C93129713961C9327C0009344031093A4
:10184000450322C02115310519F04217530718F43A
:101850009A01BD01EF01DF01F801DBCF2115310550
:10186000F9F0281B390B2430310580F48A819B81E3
:101870006115710521F0FB019383828304C090936D
:10188000450380934403FE01329644C0FE01E20FFB
:10189000F31F8193919322503109398328833AC0F1
:1018A0002091420330914303232B41F42091020203
:1018B00030910302309343032093420320910002AE
:1018C000309101022115310541F42DB73EB7409109
:1018D000040250910502241B350BE0914203F09164
:1018E0004303E217F307A0F42E1B3F0B2817390719
:1018F00078F0AC014E5F5F4F2417350748F04E0F6C
:101900005F1F50934303409342038193919302C01E
:10191000E0E0F0E0CF01DF91CF911F910F910895AA
:10192000CF93DF93009709F481C0FC0132971382B3
:101930001282A0914403B0914503109781F4208155
:101940003181820F931F2091420330914303281766
:10195000390751F5F0934303E093420367C0ED016B
:1019600020E030E0CE17DF0740F44A815B819E0122
:1019700041155105F1F0EA01F5CFD383C2834081CF
:101980005181840F951FC817D90759F4888199810F
:10199000840F951F0296918380838A819B81938314
:1019A00082832115310529F4F0934503E093440324
:1019B0003DC0E901FB83EA8349915991C40FD51FCA
:1019C000EC17FD0761F480819181840F951F0296C9
:1019D000E90199838883828193819B838A83E0E0F4
:1019E000F0E012968D919C911397009719F0FD01EC
:1019F000DC01F7CF8D919C9111979D012E5F3F4F98
:101A0000820F931F20914203309143032817390717
:101A100069F4309729F4109245031092440302C0F0
:101A200013821282B0934303A0934203DF91CF91BC
:101A30000895283008F027E03327DA01990F311D87
:101A400087FD916000966105710539F432602E5F63
:101A50003D9330E32A95E1F708959F3F30F08038B9
:101A60007105610509F03C5F3C5F3D93913008F0E2
:101A70008068911DDF93CF931F930F93FF92EF9296
:101A8000192F987F9695E92F96959695E90FFF2740
:101A9000EA5BFE4F99273327EE24FF24A701E701D5
:101AA00005900894079428F4360FE71EF81E491F86
:101AB000511D660F771F881F991F0694A1F7059087
:101AC000079428F4E70EF81E491F561FC11D770F13
:101AD000881F991F661F0694A1F70590079428F4A4
:101AE000F80E491F561FC71FD11D880F991F661F6B
:101AF000771F0694A1F70590079420F4490F561F0D
:101B0000C71FD81F990F661F771F881F0694A9F754
:101B100084911095177041F0D695C79557954795C4
:101B2000F794E7941A95C1F7ECEEF0E068941590FD
:101B3000159135916591959105907FE27395E11826
:101B4000F10A430B560BC90BD009C0F7E10CF11E8B
:101B5000431F561FC91FD01D7EF4703311F48A95A0
:101B6000E6CFE894015030F0080F0AF4002702177E
:101B700008F4202F2395022F7A3328F079E37D9300
:101B80002A95E9F710C07D932A9589F606949795D2
:101B90006795379517951794E118F10A430B560B83
:101BA000C90BD00998F023957E9173957A3308F08C
:101BB00070E37C932013B8F77E9170617D9330F0D1
:101BC000839571E37D9370E32A95E1F71124EF90FB
:101BD000FF900F911F91CF91DF91992787FD9095ED
:101BE0000895FC010590615070400110D8F7809570
:101BF00090958E0F9F1F0895FC01615070400190D9
:101C00000110D8F7809590958E0F9F1F08950F9320
:101C10001F93CF93DF93FB01238121FD03C08FEF3F
:101C20009FEF2CC022FF16C0468157812481358149
:101C30004217530744F4A081B1819D012F5F3F4FAC
:101C4000318320838C93268137812F5F3F4F3783E9
:101C5000268314C08B01EC01FB010084F185E02D8B
:101C60001995892BE1F6D80116968D919C911797BD
:101C7000019617969C938E931697CE01DF91CF9184
:101C80001F910F910895CF93DF93CDB7DEB7AE01CB
:101C90004A5F5F4FFA0161917191AF0180914803F2
:101CA000909149030E94C704DF91CF910895FA01F2
:101CB000AA27283051F1203181F1E8946F936E7F8B
:101CC0006E5F7F4F8F4F9F4FAF4FB1E03ED0B4E07C
:101CD0003CD0670F781F891F9A1FA11D680F791FBD
:101CE0008A1F911DA11D6A0F711D811D911DA11DCE
:101CF00020D009F468943F912AE0269F11243019DE
:101D0000305D3193DEF6CF010895462F4770405D78
:101D10004193B3E00FD0C9F7F6CF462F4F70405D27
:101D20004A3318F0495D31FD4052419302D0A9F782
:101D3000EACFB4E0A6959795879577956795BA957C
:101D4000C9F700976105710508959B01AC010A2E42
:101D500006945795479537952795BA95C9F7620F19
:0E1D6000731F841F951FA01D0895F894FFCFD8
:101D6E0000004C03200001000000000300000000F2
:101D7E00640851080000C600CE00D6003601546536
:101D8E006D70657261747572653A20252E31660D1F
:021D9E00000043
:00000001FF
